:020000040800F2
:10600000409200209D8C0008A1640008A364000851
:10601000A7640008AB640008AF640008000000003B
:10602000000000000000000000000000B364000851
:10603000B564000800000000B7640008B9640008F7
:10604000B78C0008B78C0008B78C0008B78C000824
:10605000B78C0008B78C00084174000885740008EC
:1060600061760008A5760008B78C0008B78C000898
:10607000B78C0008B78C0008B78C0008B78C0008F4
:10608000B78C0008B78C0008B78C0008B78C0008E4
:10609000B78C0008B78C0008B78C000835260108BB
:1060A000B78C0008B78C0008B78C0008B78C0008C4
:1060B000ED340108E3670008B78C0008B78C0008CE
:1060C000B78C0008B78C0008B78C0008B78C0008A4
:1060D000B78C0008058B00088D8B0008EB8B00083F
:1060E000B78C0008B78C0008B78C0008B78C000884
:1060F000B78C0008B78C0008B78C0008B78C000874
:10610000B78C0008B78C0008B78C0008B78C000863
:10611000B78C0008B78C0008B78C0008E768000847
:10612000B78C0008B78C0008B78C0008B78C000843
:1061300000F002F800F063F80AA090E8000C824436
:106140008344AAF10107DA4501D100F058F8AFF213
:10615000090EBAE80F0013F0010F18BFFB1A43F045
:1061600001031847D0120100F01201000A444FF059
:10617000000C10F8013B13F0070408BF10F8014BA6
:106180001D1108BF10F8015B641E05D010F8016BEB
:10619000641E01F8016BF9D113F0080F1EBF10F84F
:1061A000014BAD1C0C1B09D16D1E58BF01F801CB72
:1061B000FAD505E014F8016B01F8016B6D1EF9D5F5
:1061C0009142D6D37047000000230024002500260A
:1061D000103A28BF78C1FBD8520728BF30C148BF4A
:1061E0000B6070471FB510F0E3FE04000020002193
:1061F00010F054FF401C60601FBD10B510BD10F0C2
:10620000DFFE1146FFF7EEFF00F0A4F810F0FDFEF0
:1062100003B4FFF7F2FF03BC02F070FB80F30888C1
:106220007047000010B502F0FFFA4FF4A06002F0D2
:1062300055FD4FF4E13002F070FB4FF4165002F0C0
:10624000BDFB4FF4165002F00AFC41F61F4140F22C
:10625000E73000F057FA41F61F4140F2E73000F016
:106260007EFA00F01BFA00F033FA00F0B3FC04F001
:106270009CFF00F065FF01F0BFFA05F049FB00F05C
:10628000E5FC01F04DF801F097F801F0A5F90DF0EB
:10629000F0F800F03BFF01F0D5FC06200AF03FFCCF
:1062A0000AF086F80DF069FB0DF077FB0A200DF07F
:1062B0003FFB4FF400606F49086000200DF042FC86
:1062C0000A200DF035FB0DF02FFC0A2002F0E9FA50
:1062D0000022114610460DF09FFD10BD10B501F0D3
:1062E00014F810BD10B50DF05DF905F0B6FD06F01F
:1062F00030FA08F07FFE09F0EBF908F0DFFD08F056
:106300005FF908F050FE07F0B2FE09F0FCFD09F05D
:1063100005FE09F00EFE09F017FE01F0CFFC08F0B3
:106320004BFF0AF0F7F809F0ADFE02F041F908F072
:1063300099FE08F08AFE08F0A2FE0AF096FC0AF028
:10634000BAFC0AF099FC0AF0C6FC0AF0D4FC08F08A
:10635000E5FE10BD00F021F94748484908600020DB
:1063600080F3108800BFFFF75DFFFFF7B7FFFFF76F
:10637000B9FF002042490860091F0860091F086032
:1063800040F63541052000F0ABFE6421032006F005
:106390005FF801F0A3FC0AF0EBFF0AF0CAFD67E02A
:1063A00000F0B0FE05F0C2FC3648007800EB80003B
:1063B00035490968B1EB400F01D905F061FD31485D
:1063C000007800EB800031490968B1EB400F01D93A
:1063D00005F068FD09F0E5FC50B109F0F0FC2C482F
:1063E0000068012804D105F042FD0020264908601C
:1063F0000AF089FC27480088B0F5167F05DD0020EB
:1064000024490880012008F0A5FF2348408840F275
:106410008A21884218DD00201F49488004200AF0A4
:1064200080F81D480079052809DB01F057FC64213C
:10643000012006F00DF800201749087104E0164805
:106440000079401C144908710AF0DAFD13480078FD
:1064500008B108F0C3FB08F009F80DF014F809F0D2
:106460009BFD002001F0DAFF0AF0C6F805F023FDDD
:1064700096E70000101801400060000808ED00E0F9
:106480009C812242FD000020DC000020E40000206E
:10649000200300200402002064030020B901002032
:1064A000704700BFFEE700BFFEE700BFFEE700BF8A
:1064B000FEE7704770477047704700000CB500203A
:1064C000019000906C48006840F480306A49086090
:1064D00000BF6948006800F4003000900198401C3B
:1064E0000190009818B90198B0F5A06FF1D16248F9
:1064F000006800F4003010B10120009001E000209D
:1065000000900098012843D15C48006840F01000DA
:106510005A4908600846006820F0030008600846F1
:10652000006840F0020008605348406852494860E3
:106530000846406848600846406840F4806048600B
:106540000846406820F47C1048600846406840F4E3
:10655000E81048600846006840F08070086000BF9E
:106560004548006800F000700028F9D042484068B3
:1065700020F00300404948600846406840F00200AF
:10658000486000BF3C48406800F00C000828F9D182
:106590000CBD10B5FFF792FF10BD10B5364800686E
:1065A00040F001003449086008464068344908401A
:1065B0003149486008460068324908402E49086061
:1065C0000846006820F4802008600846406820F4EF
:1065D000FE0048604FF41F008860FFF7DAFF4FF0BD
:1065E00000602949086010BD10B50021002000227C
:1065F000214B5B6803F00C0121B1042906D0082966
:1066000028D107E0214B224C236027E01F4B204C70
:10661000236023E0184B5B6803F47010164B5B6833
:1066200003F48032022303EB904022B9194B434319
:10663000174C23600DE0104B5B6803F4003323B16B
:10664000144B4343124C236003E0104B4343104C64
:10665000236003E00D4B0E4C236000BF00BF064BD0
:106660005B68C3F303130C4CE15C094B1B68CB4024
:10667000074C236010BD00000010024000200240C3
:106680000000FFF8FFFFF6FE08ED00E000127A00C0
:106690000000002000093D000400002008B5012191
:1066A000202002F0A5FEE020ADF8000010208DF8BB
:1066B000030003208DF802006946044802F0DCFB69
:1066C000E021024802F087FC08BD000000140140F0
:1066D00008B50121202002F08BFE0820ADF8000053
:1066E00010208DF8030003208DF80200694604484D
:1066F00002F0C2FB0821024802F06BFC08BD00005A
:10670000001401407FB505460C460121022002F02D
:106710007CFEADF80850ADF804400020ADF80A004A
:10672000ADF8060001A9794803F09EF9012211464F
:10673000764803F010FD1D208DF8000000208DF834
:10674000010003208DF8020001208DF80300684647
:1067500002F0C9FA01216D4803F0E2FC7FBD7FB56C
:1067600005460C460121202002F04FFEADF80850EE
:10677000ADF804400020ADF80A00ADF8060001A90C
:10678000634803F071F901221146614803F0E3FC0C
:1067900037208DF8000000208DF8010004208DF8CE
:1067A000020001208DF80300684602F09CFA0121E6
:1067B000574803F0B5FC7FBD08B54FF4E06002F028
:1067C0008DFA1C208DF8000000208DF801000320B8
:1067D0008DF8020001208DF80300684602F083FA6C
:1067E00008BD10B50121494803F063FF002879D0A6
:1067F0000121464803F06EFF4648007820B946481C
:106800000068401C4449086044480078012804D0CE
:1068100043480068401C424908604248006820B173
:1068200041480068401C404908604048006820B169
:106830003F480068401C3E4908603E48007820B14F
:106840003D480068401C3C4908603C48008820B135
:106850003A480088401E394908803948008820B1EC
:1068600037480088401E364908803648008820B1E5
:1068700034480088401E334908803348006820B1FE
:1068800031480068401E3049086030480078401C9C
:106890002E4908702E480078401C2D490870084683
:1068A00000780A2806D1002008702A480078401E87
:1068B000284908702848007820B128480088401CE2
:1068C000264908802648007820B125484088401C89
:1068D000234948802348008820B122480088401E70
:1068E0002049088010BD10B50121094803F0E1FEE0
:1068F00018B10121064803F0EDFE10BD15490870DE
:1069000000BF144909780029FBD1704700040040FA
:1069100000140040B8000020BC000020CC00002083
:10692000D0000020D8000020DC000020E000002083
:10693000E4000020900100208C0100206C00002069
:106940006E000020A2030020C0000020D50000201F
:106950001800002019000020F4010020040200208B
:10696000640300200001002008B50121402002F04E
:106970003FFD0320ADF8000010208DF80300032038
:106980008DF802006946904802F076FA03218E489D
:1069900002F01FFB08BD10B58B48006820F0F00026
:1069A000894908600846006840F03000086001200E
:1069B000864908608649C1F88001042001F04DFF36
:1069C000002082490860042001F047FF0020804930
:1069D000C1F8800110BD10B57B48006820F0F000C0
:1069E000794908600846006840F0300008600020DF
:1069F0007649091F08607649C1F88401042001F036
:106A00002CFF01207149091F08607149C1F88401F8
:106A1000042001F022FF10BD10B500246A48006870
:106A200020F0F000684908600846006840F08000E7
:106A3000086001206549086001F00FFF01206449EA
:106A4000C1F8800101F009FF07E0601CC4B2FA2C14
:106A500003DDFFF7C0FF012010BD5C4880380068EF
:106A60000028F2D15949091F086000BFF4E710B5AA
:106A700000205649091F08605348006820F0F000C4
:106A8000514908600846006840F030000860002066
:106A90004F49C1F88401022001F0DFFE01204B497B
:106AA000091F0860022001F0D8FE00204849C1F803
:106AB000800110BD10B500204449091F08604248FC
:106AC000006820F0F000404908600846006840F087
:106AD0003000086001203E49C1F88401022001F025
:106AE000BCFE01203949091F0860022001F0B5FEF3
:106AF00000203749C1F8800110BD70B50446324806
:106B0000006820F0F000304908600846006840F056
:106B10003000086000202D49091F086000251DE095
:106B2000E00918B101202949086002E00020274946
:106B300008606006040E022001F08FFE0120234948
:106B4000091F0860022001F088FE00202049C1F8DA
:106B50008001022001F081FE681CC5B2082DDFDB38
:106B600070BD70B5054600241748006820F0F0009D
:106B7000154908600846006840F08000086000265B
:106B800017E000201149091F0860022001F065FE8E
:106B900001200F49C1F880016006040E0B488038BF
:106BA000006808B1601CC4B2012001F056FE701CE0
:106BB000C6B2082EE5DB15B9FFF77CFF01E0FFF751
:106BC00056FF204670BD000000180140840123429A
:106BD0000000234208B50121282002F009FC102002
:106BE000ADF800008DF8030003208DF8020069461F
:106BF0000C4802F041F910210A4802F0EAF940205D
:106C0000ADF8000010208DF8030003208DF802007D
:106C10006946054802F030F94021034802F0D9F9ED
:106C200008BD000000140140000C014010B50446EE
:106C30000020EF490860012000F0E2F9204600F052
:106C4000DFF90120EB49C1F8900110BD08B5012121
:106C5000042002F0CDFB1020ADF800008DF80300F9
:106C600003208DF802006946E34802F005F910217F
:106C7000E14802F0B0F900F0EAF9082000F01DFA4E
:106C80000020FFF7D3FF08BD10B500240020D8492D
:106C90000860052000F0B4F9FF2000F0B1F90446C7
:106CA0000120D449C1F89001204610BD10B5002044
:106CB000CF490860062000F0A3F90120CD49C1F8B2
:106CC000900110BD10B50020C9490860042000F0F3
:106CD00097F90120C749C1F8900110BD10B50024F3
:106CE0000020C3490860902000F08AF9002000F0DD
:106CF00087F9002000F084F9002000F081F9FF20DE
:106D000000F07EF944EA0024FF2000F079F9044302
:106D10000120B849C1F89001204610BD2DE9F0418D
:106D200006460C4617460020B1490860032000F0D3
:106D300067F9C4F3074000F063F9C4F3072000F0DB
:106D40005FF9E0B200F05CF9002505E0FF2000F0FB
:106D500057F97055681C85B2BD42F7DB0120A44984
:106D60000860BDE8F0812DE9F04107460E4641F28A
:106D70001110864221D2C6EB0610C40100209C49A6
:106D80000860032000F03CF9C4F3074000F038F934
:106D9000C4F3072000F034F9E0B200F031F9002527
:106DA00005E0FF2000F02CF97855681C85B2B5F598
:106DB000F06FF6DB01208E490860BDE8F08110B568
:106DC00000BFFFF761FF00F001000028F9D110BDFE
:106DD0002DE9F04106460C461746FFF767FF0020F5
:106DE00083490860022000F00BF9C4F3074000F06B
:106DF00007F9C4F3072000F003F9E0B200F000F94E
:106E0000002504E0705D00F0FBF8681C85B2BD420F
:106E1000F8DB012076490860FFF7D1FFBDE8F0817B
:106E20002DE9F04107460E461446F0B2C0F58075D4
:106E3000AC4200DC254612E02A4631463846FFF7D0
:106E4000C7FFAC4200D10BE02F442E44601B84B23C
:106E5000B4F5807F02DD4FF4807500E02546EBE756
:106E600000BFBDE8F08110B504462403FFF71EFF04
:106E7000FFF7A5FF00205E490860202000F0C0F861
:106E8000C4F3074000F0BCF8C4F3072000F0B8F8E2
:106E9000E0B200F0B5F801205649C1F89001FFF7C3
:106EA0008EFF10BD2DE9F04781460F4616464FEA8A
:106EB0001738C7F30B0ACAF58054A64200DC3446E3
:106EC00044E04FEA08314FF480524C48FFF726FF68
:106ED000002508E00AEB05004849085CFF2800D0BF
:106EE00003E0681C85B2A542F4DB00BFA54216DAB8
:106EF0004046FFF7B8FF002507E019F8050005EB4D
:106F00000A013E4A5054681C85B2A542F5DB4FEA9F
:106F100008314FF480523948FFF782FF04E02246DF
:106F200039464846FFF77CFFA64200D10FE008F142
:106F300001084FF0000AA1442744301B86B2B6F581
:106F4000805F02DD4FF4805400E03446B9E700BFB3
:106F5000BDE8F08710B5FFF7A9FEFFF730FF00206E
:106F600023490860C72000F04BF801202149C1F8EF
:106F70009001FFF724FF10BD10B50446FFF796FE01
:106F8000FFF71DFF00201A490860202000F038F8A4
:106F9000C4F3074000F034F8C4F3072000F030F8E1
:106FA000E0B200F02DF801201249C1F89001FFF77E
:106FB00006FF10BD10B500200D490860B92000F093
:106FC0001FF801200B49C1F89001032001F045FC96
:106FD00010BD10B5002006490860AB2000F010F885
:106FE00001200449C1F89001032001F036FC10BDD6
:106FF000900121420000214200080140EC170020CE
:1070000070B50546002405E0601CC4B2012C01DD0A
:10701000002070BD02212F4804F03BF80028F3D077
:1070200029462C4803F0E2FF002405E0601CC4B2AE
:10703000012C01DD0020ECE70121264804F029F8AD
:107040000028F3D0234803F0D3FFC0B2E1E708B52E
:10705000012141F2040002F0CBF9E020ADF800007C
:1070600018208DF8030003208DF8020069461A48A5
:1070700001F002FFE021184801F0ABFF00201749A2
:1070800008804FF482704880002088800220C880E9
:107090000120088140024881382088810020C88171
:1070A000072008820B4803F0CBFE0121094803F0BA
:1070B0006CFFFF20FFF7A4FF08BD10B5044607488A
:1070C00084810146034803F0BBFE0121014803F01F
:1070D0005CFF10BD0030014000080140EC2700209B
:1070E00070B505460C4645F2555003F063FE284640
:1070F00003F063FE204603F063FE03F064FE03F03A
:1071000067FE70BD10B503F05EFE10BD08B501212D
:10711000102002F06DF90220ADF8000048208DF833
:10712000030003208DF802006946044801F0A4FE24
:107130000221024801F04DFF08BD0000000C014093
:1071400010B5FFF711FC10BD70B504460026FFF71F
:1071500022FCA020FFF7D1FCFFF75EFC2012FFF716
:10716000CCFCFFF759FC2546E11704EB116109122D
:10717000A4EB0121C8B2FFF7C0FCFFF74DFCFFF7FD
:107180000AFCA120FFF7B9FCFFF746FC0020FFF73F
:10719000E8FC0646FFF71FFC304670BD70B504469C
:1071A0000E46FFF7F8FBA020FFF7A7FCFFF734FC23
:1071B0002012FFF7A2FCFFF72FFC2546E11704EB96
:1071C00011610912A4EB0121C8B2FFF796FCFFF789
:1071D00023FC3046FFF791FCFFF71EFCFFF7FBFB9B
:1071E0000A2001F05EFB70BD2DE9F04104460D461A
:1071F0001646FFF7D0FBA020FFF77FFCFFF70CFC43
:10720000200AFFF77AFCFFF707FCE0B2FFF775FCF6
:10721000FFF702FC002707E015F8010BFFF76DFCF4
:10722000FFF7FAFB781CC7B2B742F5DBFFF7D3FBD9
:107230000A2001F036FBBDE8F0812DE9F04105465A
:107240000E461746002409E0E20026FA02F2D1B207
:107250002A1990B2FFF7A2FF601CC4B2BC42F3DB54
:10726000BDE8F0812DE9F04107460C4600260025D7
:1072700009E036023919491B491E88B2FFF764FF3D
:107280000644681CC5B2A542F3DB3046BDE8F08178
:1072900010B54FF6FF70FFF757FF0446552C01D18C
:1072A000002010BD55214FF6FF70FFF777FF4FF616
:1072B000FF70FFF749FF0446552C01D10020F0E78D
:1072C0000120EEE770B506460C46154608E030464C
:1072D000721C96B2FFF738FF04F8010B681E85B2E6
:1072E000002DF4D170BD70B505460C46164606E07B
:1072F00021782846FFF752FF681C85B2641C301EB7
:10730000A6F101018EB2F3D170BD10B502E00120EB
:1073100001F0C7FAFFF7BCFF0028F8D110BD00004C
:1073200008B50121042002F063F80220ADF8000046
:1073300010208DF8030003208DF8020069461B48D9
:1073400001F09AFD00201A49086008BD70B5054695
:107350000E4601201649086000240CE0295D1548FE
:1073600002F0E6F900BF4021124802F04FFA00286F
:10737000F9D0601C84B2B442F0DB00200C490860F4
:1073800070BD10B50446012009490860214609482E
:1073900002F0CEF900BF4021064802F037FA01287A
:1073A000F9D100200249086010BD0000000801402A
:1073B00084012142004400400EB50121084602F03C
:1073C00017F80021022001F06DFE0120019000203D
:1073D0008DF808000C208DF8090001208DF80A00B6
:1073E00001A803F089F90121022001F05BFE0220CF
:1073F000019000208DF808000C208DF8090001A8EC
:1074000003F07AF906208DF8000003208DF80100C2
:107410008DF8020001208DF80300684601F063FC3E
:1074200007208DF8000003208DF8010004208DF85E
:10743000020001208DF80300684601F054FC0EBDE7
:1074400010B5012003F0BEF9D8B15C480068A8B9B6
:1074500000215B4802780078401C594B187059484D
:10746000815401205849086018460078222805D127
:10747000012052490860002019460870012003F0DD
:10748000B2F910BD10B5022003F09CF9E0B14B48F1
:107490000068B0B901214A4802780078401C484B86
:1074A00018704848815401204749091D0860184652
:1074B0000078222805D101204049086000201946A3
:1074C0000870022003F08FF910BD00213B4A1160C3
:1074D0003B4A11703D4A117001213B4A11603C4A00
:1074E000C2F80411002004E00021364A1154411C66
:1074F000C8B22228F8DB70471123324802780121F4
:1075000004E03048405C4240481CC1B29942F8DB7C
:107510000AB1002070472B4890F82120194604E05A
:107520002848405C4240481CC1B22129F8DB012AAE
:1075300001D00020EEE70120ECE718B5002019E0AB
:1075400000220DF80020012110E01DF80020520655
:10755000120E0DF800201DF8002001EBC003194C9D
:10756000E35C1A430DF800204A1CD1B20929ECDB78
:10757000421CD0B20428E3DB002007E0C0F1030284
:107580001DF80220134B1A54421CD0B20428F5DB1C
:1075900018BD10B50D480078032801DDFFF795FFF1
:1075A00000240648006838B1FFF7A6FF10B1012497
:1075B000FFF7C3FFFFF789FF204610BD240000201E
:1075C00021000020FE270020000122422000002090
:1075D00000002242F00000200EB50121084601F013
:1075E00007FF0221084601F05DFD04200190002004
:1075F0008DF808000C208DF8090001208DF80A0094
:1076000001A803F079F80321022001F04BFD0820C6
:10761000019000208DF808000C208DF8090001A8C9
:1076200003F06AF808208DF8000003208DF80100AF
:1076300002208DF8020001208DF80300684601F059
:1076400052FB09208DF8000003208DF80100012075
:107650008DF802008DF80300684601F044FB0EBD72
:1076600010B5042003F0AEF8D8B15C480068A8B9A2
:1076700000215B4802780078401C594B187059482B
:10768000815401205849086018460078222805D105
:10769000012052490860002019460870042003F0B8
:1076A000A2F810BD10B5082003F08CF8E0B14B48EB
:1076B0000068B0B901214A4802780078401C484B64
:1076C00018704848815401204749091D0860184630
:1076D0000078222805D10120404908600020194681
:1076E0000870082003F07FF810BD00213B4A1160AC
:1076F0003B4A11703D4A117001213B4A11603C4ADE
:10770000C2F80C11002004E00021364A1154411C3B
:10771000C8B22228F8DB70471123324802780121D1
:1077200004E03048405C4240481CC1B29942F8DB5A
:107730000AB1002070472B4890F82120194604E038
:107740002848405C4240481CC1B22129F8DB012A8C
:1077500001D00020EEE70120ECE718B5002019E089
:1077600000220DF80020012110E01DF80020520633
:10777000120E0DF800201DF8002001EBC003194C7B
:10778000E35C1A430DF800204A1CD1B20929ECDB56
:10779000421CD0B20428E3DB002007E0C0F1030262
:1077A0001DF80220134B1A54421CD0B20428F5DBFA
:1077B00018BD10B50D480078032801DDFFF795FFCF
:1077C00000240648006838B1FFF7A6FF10B1012475
:1077D000FFF7C3FFFFF789FF204610BD30000020F0
:1077E0002D00002020280020080122422C0000202B
:1077F00000002242F000002010B500F0EDF810BDAE
:1078000070B50446002600F0FEF8A02000F0ADF9A7
:1078100000F03AF9201200F0A8F900F035F92546F9
:10782000E11704EB11610912A4EB0121C8B200F0C9
:107830009CF900F029F900F0E6F8A12000F095F994
:1078400000F022F9002000F0C4F9064600F0FBF831
:10785000304670BD70B504460E4600F0D4F8A02046
:1078600000F083F900F010F9201200F07EF900F02A
:107870000BF92546E11704EB11610912A4EB012174
:10788000C8B200F072F900F0FFF8304600F06DF970
:1078900000F0FAF800F0D7F80A2001F002F870BD05
:1078A0002DE9F04104460D46164600F0ACF8A02044
:1078B00000F05BF900F0E8F8200A00F056F900F05B
:1078C000E3F8E0B200F051F900F0DEF8002707E03D
:1078D00015F8010B00F049F900F0D6F8781CC7B292
:1078E000B742F5DB00F0AFF8082000F0DAFFBDE8A2
:1078F000F0812DE9F04105460E461746002409E0C7
:10790000E20026FA02F2D1B22A1990B2FFF7A2FFE2
:10791000601CC4B2BC42F3DBBDE8F0812DE9F0414C
:1079200007460C460026002509E036023919491B96
:10793000491E88B2FFF764FF0644681CC5B2A54221
:10794000F3DB3046BDE8F08110B54FF6FF70FFF76E
:1079500057FF0446552C01D1002010BD55214FF68C
:10796000FF70FFF777FF4FF6FF70FFF749FF044600
:10797000552C01D10020F0E70120EEE770B5064656
:107980000C46154608E03046721C96B2FFF738FFE9
:1079900004F8010B681E85B2002DF4D170BD70B5DE
:1079A00005460C46164606E021782846FFF752FFAA
:1079B000681C85B2641C301EA6F101018EB2F3D1A1
:1079C00070BD10B502E00A2000F06BFFFFF7BCFFAE
:1079D0000028F8D110BD000008B50121402001F0B9
:1079E00007FD6020ADF8000010208DF80300032093
:1079F0008DF802006946904801F03EFA60218E48F9
:107A000001F0E7FA08BD10B58B48006820F470005B
:107A1000894908600846006840F440100860012069
:107A2000864908608649C1F89801042000F015FFD6
:107A3000002082490860042000F00FFF00208049E8
:107A4000C1F8980110BD10B57B48006820F47000A3
:107A5000794908600846006840F44010086000203A
:107A60007649091D08607649C1F89401042000F0A8
:107A7000F4FE01207149091D08607149C1F89401A3
:107A8000042000F0EAFE10BD10B500246A4800682A
:107A900020F47000684908600846006840F400005F
:107AA000086001206549086000F0D7FE01206449A4
:107AB000C1F8980100F0D1FE07E0601CC4B2FA2CB6
:107AC00003DDFFF7C0FF012010BD5C48803800686F
:107AD0000028F2D15949091D086000BFF4E710B52C
:107AE00000205649091D08605348006820F47000C2
:107AF000514908600846006840F4401008600020C2
:107B00004F49C1F89401022000F0A7FE01204B4923
:107B1000091D0860022000F0A0FE00204849C1F8BD
:107B2000980110BD10B500204449091D0860424865
:107B3000006820F47000404908600846006840F47E
:107B40004010086001203E49C1F89401022000F075
:107B500084FE01203949091D0860022000F07DFEE5
:107B600000203749C1F8980110BD70B5044632486D
:107B7000006820F47000304908600846006840F44E
:107B80004010086000202D49091D086000251DE0F7
:107B9000E00918B101202949086002E000202749C6
:107BA00008606006040E022000F057FE0120234901
:107BB000091D0860022000F050FE00202049C1F895
:107BC0009801022000F049FE681CC5B2082DDFDBD9
:107BD00070BD70B5054600241748006820F4700099
:107BE000154908600846006840F400000860002657
:107BF00017E000201149091D0860022000F02DFE49
:107C000001200F49C1F898016006040E0B48803826
:107C1000006808B1601CC4B2012000F01EFE701C98
:107C2000C6B2082EE5DB15B9FFF77CFF01E0FFF7D0
:107C300056FF204670BD0000001801409401234209
:107C40000000234208B50121042001F0D1FB4FF4CC
:107C50008070ADF8000010208DF8030003208DF82F
:107C600002006946F84801F007F94FF48071F648C0
:107C700001F0AFF908BD70B505460E4600240CE0D2
:107C8000295DF24801F054FD00BF4021EF4801F0AA
:107C9000BDFD0128F9D1601C84B2B442F0DB70BD97
:107CA00010B504462146E94801F042FD00BF4021DD
:107CB000E64801F0ABFD0128F9D110BD10B54FF435
:107CC0000061E3480FF01FF90020E2490870E24923
:107CD0000880E2490880E249087010BD10B5002014
:107CE000E0494871E04908604FF4FA7000F0D9FDAE
:107CF0004FF4FA7000F0D5FD0120DC49C1F8A00175
:107D0000FFF7DCFF10BD70B5044600250BE0605D99
:107D10002A2803D12220FFF7C3FF02E0605DFFF7AE
:107D2000BFFF681CC5B2605D0028F0D1D049488013
:107D3000CA490880C849088070BD30B502460B4664
:107D40000021CC48038025E0C4480088C24C248828
:107D5000A0421AD0505CBE4CC04D2D88645DA0423C
:107D600002D1481CC1B200E00021505C08B90020DB
:107D700030BDBA480088401CB84C2080204600889E
:107D8000B0F5006F01DB00202080BA48008808B9F8
:107D90001320EDE7D8E7FEB504460D460023002189
:107DA0000026B448058027E0AC480088AA4F3F88E9
:107DB000B8421CD0605CA64FDFF8A0C2BCF800C07F
:107DC00017F80C70B84202D1481CC1B200E0002183
:107DD000A2480088401CA14F388038460088B0F582
:107DE000006F01DB00203880605C00B905E0A1482D
:107DF000008808B91320FEBDD6E700BF002301218B
:107E00004AE096480088944F3F88B8423FD0904857
:107E1000924F3F88C05D2C2809D1481EC0B203EBA9
:107E200083070DF807000121581CC3B223E08848DE
:107E30008A4F3F88C05D0D2801D101261BE0844890
:107E4000864F3F88C05D0A280AD136B1481EC0B2AD
:107E500003EB83070DF807001FE0002301210AE070
:107E60007B487E4F3F88C05D03EB8307EC46674449
:107E70007854481CC1B279480088401C774F38803C
:107E800038460088B0F5006F01DB00203880794863
:107E9000008808B91320AEE7B3E700BF9DF80000E3
:107EA00002280BD19DF8020030389DF80170303F58
:107EB00007EB870700EB4700107003E09DF8010017
:107EC000303810709DF8050002280BD19DF807008E
:107ED00030389DF80670303F07EB870700EB47000E
:107EE000507003E09DF8060030385070002082E7A3
:107EF000F0B503460C461546002100225D4804807B
:107F000024E056480088544E3688B04219D0585C58
:107F10004F4E524F3F88F65DB04202D1481C81B2AD
:107F200000E000214D480088401C4C4E3080304617
:107F30000088B0F5006F01DB00203080585C00B98C
:107F400005E04C48008808B91320F0BDD9E700BF10
:107F5000002125E0414800883F4E3688B0421AD0C3
:107F60003B483E4E3688805DA854501C82B23B4848
:107F70000088401C394E308030460088401E344E08
:107F8000305C0D2807D10020344E30803A48028002
:107F900000220020D9E73748008808B91320D4E729
:107FA000D8E710B53548FFF7AEFE3C2134A0FFF707
:107FB000C4FE04460CB10F2010BD0020FCE70020D9
:107FC000FF200021244A118005E00022411E89B2D1
:107FD00008461F4B5A540028F7D1704710B50024AB
:107FE0002948008800B110BD2848FFF78CFE052104
:107FF00027A0FFF7A2FE04462CB902201949887079
:108000000020487006E002201649087008464078B3
:10801000401C48700A201C49088000BFE3E710B5E7
:1080200000241948008800B110BD1B48FFF76BFE03
:10803000052117A0FFF781FE04467CBB03200949F8
:1080400088700020487031E000080140003801408D
:108050004228002021010020700000207200002032
:1080600086000020FA4C0020A0012142000021429D
:10807000640300206C00002074000020D47001080C
:108080000D0A4F4B0D0A00006E000020C870010859
:108090004F4B0D0A00000000CD700108FFE70220E1
:1080A000F849087008464078401C48700A20F64994
:1080B000088000BFB8E710B50024F348008800B17D
:1080C00010BDF248FFF71FFE0521AFF23C00FFF79D
:1080D00034FE04462CB90C20EA4988700020487010
:1080E00006E01420E749087008464078401C4870B4
:1080F0000A20E549088000BFE2E710B586B00024F9
:10810000142101A80EF021FFDF48008808B106B055
:1081100010BDDF48FFF7F7FD01AA0A21AFF29C006E
:10812000FFF7E6FE044654B90F2201A9D9480EF024
:1081300073FE0D20D34988700020487006E00220AD
:10814000D049087008464078401C48700520CE4948
:10815000088000BFDBE710B586B00024142101A819
:108160000EF0F3FEC848008808B106B010BDCA483A
:10817000FFF7C9FD01AA0A21AFF2F800FFF7B8FE28
:10818000044654B90F2201A9C4480EF045FE04204C
:10819000BC4988700020487006E00220B949087088
:1081A00008464078401C48700520B749088000BF49
:1081B000DBE710B50024B448008800B110BDB84812
:1081C000FFF7A1FDB74A0521B7A0FFF7E4FD04467C
:1081D00084B9B448007868B9B2484078012803D01F
:1081E000B0484078052805D10520A64988700020B0
:1081F000487006E00720A349087008464078401CF4
:1082000048700A20A049088000BFD7E710B50024B5
:108210009D48008800B110BDA548FFF774FDA14A34
:108220000521A4A0FFF7B7FD044684B99D48007856
:1082300068B99C484078012803D09A4840780528BE
:1082400005D106208F4988700020487006E015206F
:108250008C49087008464078401C48700A208A49BA
:10826000088000BFD7E710B500248748008800B118
:1082700010BD9348FFF747FD0521AFF2EC10FFF763
:108280005CFD04462CB909207E49887000204870A6
:1082900006E015207B49087008464078401C48706D
:1082A0000A207949088000BFE2E710B5002476482B
:1082B000008800B110BD8348FFF725FD0521AFF20E
:1082C0003020FFF73AFD04462CB90A206D4988702A
:1082D0000020487006E015206A490870084640787A
:1082E000401C48700A206849088000BFE2E710B5CA
:1082F00000246548008800B110BD7348FFF703FDF6
:108300000A2172A0FFF719FD04467CB97048028863
:10831000704971480EF080FD6D4800886F490880F3
:108320000B20584988700020487006E016205549F7
:10833000087008464078401C48701E20524908804A
:1083400000BFD9E710B500244F48008800B110BD28
:108350006348FFF7D8FC0521AFF2CC20FFF7EDFC16
:1083600004462CB90620474988700020487006E072
:1083700015204449087008464078401C48700A207F
:108380004149088000BFE2E710B500243E4800885C
:1083900000B110BD5348FFF7B6FC0A2152A0FFF709
:1083A000CCFC044664B904F004FE01203549487150
:1083B0000020887048704E4908604E49088006E0E9
:1083C0000C203049087008464078401C48700A204C
:1083D0002D49088000BFDCE710B500242A4800883A
:1083E00000B110BD4448FFF78EFC0521AFF26030AC
:1083F000FFF7A3FC04462CB9012022498870002015
:10840000487006E00E201F49087008464078401C5E
:1084100048700A201C49088000BFE2E710B50446F6
:10842000002018490870084680780E286CD2DFE8D2
:1084300000F06B070A0D101316191C1F2225656822
:10844000FFF7CCFD61E0FFF7EAFD5EE0FFF733FEEA
:108450005BE0FFF7AEFE58E0FFF7D8FE55E0FFF710
:1084600093FF52E0FFF7B8FF4FE0FFF7FCFE4CE050
:10847000FFF71BFF49E0FFF73AFF46E0FFF762FF17
:1084800043E041E0FA4C00206E000020E17001085A
:108490005E71010836320020687101084A320020FE
:1084A000ED7001086A0000202B435245473A200036
:1084B000F87001082B43475245473A20000000005E
:1084C000137101081F710108427101084F4B000030
:1084D000700000204228002042300020740000205C
:1084E0005171010838000020434F4E4E454354005F
:1084F000C00000200001002004710108FFF7FDFD0D
:1085000003E0FFF728FE00E000BF00BF26484078E8
:10851000142817DB2448007802280BD02248007862
:10852000142807D020480078072803D01E48007878
:10853000152807D100201C498870FFF7CFFB0020C9
:1085400019494871184800780C2808D11648407815
:10855000022804DB07201449887000204871124863
:108560000078162808D1104840780F2804DB062030
:108570000D498870002048700B4800780E280BD1F8
:1085800009484078022807DB002007498870FFF778
:10859000A5FB00200449487110BD10B532220349E3
:1085A00000200AF089FA10BDFA4C002038000020A3
:1085B00008B500200090012269468920FEF782FE5E
:1085C00008BD10B586B00446194A07CA03AB07C3F5
:1085D00018A103C9CDE901012078052805DA207822
:1085E0004006000E8DF80C0004E02078C01DC0B2DB
:1085F0008DF80C009DF80C00012203A904F05DF831
:10860000012203A9481C03F078FF02220DF10D019D
:10861000C81F03F0EEFE052301AA0121084607F05A
:1086200010FF012221468920FEF75DFE06B010BD35
:10863000747101085B7631315D00000001460888E5
:1086400070472DE9F04105460E461746002407E025
:1086500036F81410284602F036FAAD1C601C84B2BD
:10866000BC42F5DBBDE8F08130B503460C4615464B
:10867000002207E01846FFF7E1FF24F812009B1CD8
:10868000501C82B2AA42F5DB30BD2DE9F05F804676
:108690008A461746B8F1006F02D36148804501D37E
:1086A000BDE8F09F02F0C7F8A8F1006B4FEADB25A8
:1086B000CBF34909C9F58064A74200DC3C464DE094
:1086C0004FF0006101EBC5204A145649FFF7CCFF7B
:1086D00000260BE009EB0600524931F810004FF676
:1086E000FF71884200D003E0701C86B2A642F1DB25
:1086F00000BFA6421BDA4FF0006101EBC52002F07B
:10870000DFF8002608E03AF8160006EB0901454AB2
:1087100022F81100701C86B2A642F4DB4FF0006113
:1087200001EBC5204A143F49FFF78BFF04E02246C6
:1087300051464046FFF785FFA74200D10FE06D1C70
:108740004FF000090AEB440AA044381B87B2B7F582
:10875000806F02DD4FF4806400E03C46B0E700BF6C
:1087600002F075F800BF9BE713B50446012201A98A
:108770002046FFF78AFF1CBD2DE9F04707460D464E
:10878000B7F1006F02D32648874201D3BDE8F087D6
:1087900002F051F8A7F1006A4FEADA26CAF3490954
:1087A000C9F58064A54200DC2C4633E04FF000613F
:1087B00001EBC6204A141B49FFF756FF4FF0000893
:1087C0000DE009EB0800174931F810004FF6FF7172
:1087D000884200D005E008F101001FFA80F8A045AA
:1087E000EFDB00BFA04505DA4FF0006101EBC620CA
:1087F00002F066F8A54200D10DE0761C4FF00009AA
:108800002744281B85B2B5F5806F02DD4FF48064E4
:1088100000E02C46CAE700BF02F019F800BFB5E738
:10882000000004085E32002010B56FF0040000F074
:10883000A4FA2E4800682E49B0FBF1F02D490870CB
:108840000846007800EB4001C1EBC0104FF6FF7105
:1088500001EAC0002849088010BD0146254A127867
:108860004A434FF0E0235A6100229A611A46126986
:1088700042F001021A6100BF4FF0E022106900F0DF
:1088800001021AB100F48032002AF5D04FF0E02244
:10889000126922F001024FF0E0231A6100229A616E
:1088A00070470146144A12884A434FF0E0235A6148
:1088B00000229A611A46126942F001021A6100BF51
:1088C0004FF0E022106900F001021AB100F480328A
:1088D000002AF5D04FF0E022126922F001024FF099
:1088E000E0231A6100229A61704700000000002016
:1088F00000127A007600002078000020014600BFB8
:10890000704700BFD44A128802F04002002AF9D012
:10891000C2B2D14B1B1D1A80704710B586B00446F9
:10892000012144F2040000F063FD4FF40070ADF843
:10893000140003208DF8160018208DF8170005A9E3
:10894000C64800F099FA4FF48060ADF81400042096
:108950008DF8170005A9C14800F08EFA25208DF882
:10896000000002208DF8010000208DF80200012097
:108970008DF80300684600F0B6F901940020ADF8C8
:108980000800ADF80A00ADF80C00ADF810000C209E
:10899000ADF80E0001A9B24800F0D1FD012240F26D
:1089A0002551AF4800F063FE0121AD4800F053FEB1
:1089B0004021AB4800F02AFF06B010BD10B586B0CC
:1089C00004460121042000F013FD0121480400F0B9
:1089D0001CFD0420ADF8140003208DF816001820AB
:1089E0008DF8170005A99D4800F046FA0820ADF85B
:1089F000140004208DF8170005A9984800F03CFAEF
:108A000026208DF8000002208DF8010001208DF84D
:108A100002008DF80300684600F065F9019400201B
:108A2000ADF80800ADF80A00ADF80C00ADF8100084
:108A30000C20ADF80E0001A9874800F080FD01224E
:108A400040F22551844800F012FE0121824800F0D6
:108A500002FE4021804800F0D9FE06B010BD10B5DE
:108A600086B004460121880400F0CFFC01210820D3
:108A700000F0BEFC4FF48060ADF8140003208DF8C8
:108A8000160018208DF8170005A9764800F0F4F9B3
:108A90004FF40060ADF8140004208DF8170005A90C
:108AA000704800F0E9F927208DF8000002208DF8C9
:108AB00001008DF8020001208DF80300684600F0E7
:108AC00012F901940020ADF80800ADF80A00ADF8E5
:108AD0000C00ADF810000C20ADF80E0001A96248A2
:108AE00000F02DFD012240F225515F4800F0BFFD4E
:108AF00001215D4800F0AFFD40215B4800F086FE9B
:108B000006B010BD10B540F22551554800F094FE56
:108B100000283AD0524800F00FFEC4B253480088F3
:108B200040F2FF71884226DA504801880088401CD4
:108B30004E4A10804E4844547E2C05D14D48007852
:108B4000401C4C49087002E000204A4908704A481D
:108B5000007850B10A2C05D00020474908704749D9
:108B6000087002E00120454908700D2C0DD101204C
:108B70004149087009E0FFF7A1F83C4801880088E6
:108B8000401C3A4A10803A48445410BD10B540F297
:108B90002551314800F050FE30B32F4800F0CCFD95
:108BA000C4B237480068B0F5006F13D2344801688A
:108BB0000068401C324A1060324844547E2C05D173
:108BC00031480078401C304908700DE000202E49E3
:108BD000087009E005F04BFA294801680068401C5C
:108BE000274A10602748445410BD10B540F2255163
:108BF0001D4800F021FE10B31B4800F09DFDC4B2DB
:108C00002248008831281BDA204801880088401C4F
:108C10001E4A10801E4844541E48007850B10A2C49
:108C200005D000201B4908701B49087002E0012094
:108C3000194908700D2C0DD101201649087009E062
:108C400007F0B4FA114801880088401C0F4A1080D0
:108C50000F48445410BD000000440040000801408B
:108C600000380140000C0140004800407000002026
:108C700042280020210100208700002086000020DB
:108C80001C010020DE3A00202001002040030020CB
:108C9000154D00208800002042030020094880472D
:108CA00009480047FEE7FEE7FEE7FEE7FEE7FEE7CE
:108CB000FEE7FEE7FEE7FEE704480549054A064BE6
:108CC000704700009B65000831610008408C00205F
:108CD00040920020408E0020408E00203149014308
:108CE000314A1160704770B5002100230F22C4780B
:108CF00004B32D4C246804F4E064C4F5E064210A54
:108D0000C1F10403CA40447804FA03F184781440A2
:108D100021430901254C0678A155047804F01F056C
:108D20000124AC4005786D11AD0005F1E025C5F8D2
:108D3000004109E0047804F01F050124AC401C4DFB
:108D40000678761145F8264070BD1A4A0A4002435B
:108D5000154B1B1F1A60704739B1134A121D126858
:108D60000243114B1B1D1A6006E00F4A121D1268C8
:108D700082430D4B1B1D1A607047042808D14FF029
:108D8000E021096941F004014FF0E022116107E0A0
:108D90004FF0E021096921F004014FF0E022116158
:108DA000704700000000FA050CED00E000E400E070
:108DB00080E100E080FFFF1F10B50446CC488442EC
:108DC00008D10121042000F02DFB0021042000F037
:108DD00029FB46E0C748844208D10121082000F061
:108DE00021FB0021082000F01DFB3AE0C24884422C
:108DF00008D10121102000F015FB0021102000F007
:108E000011FB2EE0BD48844208D10121202000F052
:108E100009FB0021202000F005FB22E0B848844235
:108E200008D10121402000F0FDFA0021402000F08F
:108E3000F9FA16E0B348844208D10121802000F0FD
:108E4000F1FA0021802000F0EDFA0AE0AE488442F9
:108E500007D10121801500F0E5FA0021A01500F0EE
:108E6000E1FA10BD10B50121084600F0DBFA00213F
:108E7000012000F0D7FA10BD2DE9F041024600258F
:108E80000026002000230024002791F803C00CF0E6
:108E90000F0591F803C00CF0100CBCF1000F03D0CB
:108EA00091F802C04CEA050591F800C0BCF1000F32
:108EB00031D0146800202BE04FF0010C0CFA00F3C5
:108EC000B1F800C00CEA03069E4220D183004FF0A7
:108ED0000F0C0CFA03F7BC4305FA03FC4CEA04043C
:108EE00091F803C0BCF1280F06D14FF0010C0CFA29
:108EF00000FCC2F814C00AE091F803C0BCF1480FAE
:108F000005D14FF0010C0CFA00FCC2F810C0401C57
:108F10000828D1D31460B1F800C0BCF1FF0F34DDD4
:108F2000546800202EE000F1080C4FF0010808FA08
:108F30000CF3B1F800C00CEA03069E4221D1830075
:108F40004FF00F0C0CFA03F7BC4305FA03FC4CEA94
:108F5000040491F803C0BCF1280F05D100F1080CFE
:108F600008FA0CF8C2F8148091F803C0BCF1480F5D
:108F700007D100F1080C4FF0010808FA0CF8C2F80C
:108F80001080401C0828CED35460BDE8F0814FF615
:108F9000FF710180022181700421C1707047024677
:108FA000002093680B400BB1012000E000207047C7
:108FB0000146886880B2704702460020D3680B40A3
:108FC0000BB1012000E0002070470146C86880B264
:108FD000704701617047416170470AB1016100E06B
:108FE00041617047C16070474FF480320A4382612B
:108FF0008161826182698269704702460020434B29
:1090000018684FF68073184040EA021008433F4B3F
:10901000186070473E49C8617047F0B50A460023A2
:1090200000240021002500F00046B6F1004F02D1D7
:10903000364EF16901E0354E7168C0F3034583B2E5
:1090400000F44016B6F5401F08D121F070612F4E94
:10905000766826F070662D4F7E6012E000F4801670
:10906000B6F5801F06D1032606FA05F4A14341F0A8
:10907000706106E0460D360103FA06F6B14341F091
:10908000706122B1460D360103FA06F6314300F055
:109090000046B6F1004F02D11C4EF16101E01B4EBB
:1090A0007160F0BD30B500228B071C0F0F2303FA4F
:1090B00004F2164B08338C1053F824309343134CAE
:1090C00008348D1044F8253023468C1053F8243092
:1090D0008C07240F00FA04F423430C4C08348D1041
:1090E00044F8253030BD0A49DC3108607047000083
:1090F00000080140000C0140001001400014014034
:1091000000180140001C0140002001400000014007
:1091100000002042DF48006840F00100DD4908609F
:1091200008464068DC490840DA494860084600685B
:10913000DA490840D74908600846006820F48020D2
:1091400008600846406820F4FE0048604FF41F00A5
:1091500088607047CF49096821F48031CD4A116099
:109160001146096821F480211160B0F5803F03D0D9
:10917000B0F5802F0ED106E0C649096841F4803170
:10918000C44A116007E0C349096841F4A021C14AFB
:10919000116000E000BF00BF704710B5014600221B
:1091A000002300204A11012A02D1BA4C236806E0AC
:1091B000022A02D1B74C236A01E0B64C636A01F07F
:1091C0001F02012494401C400CB1012000E000204B
:1091D00010BD38B5002000900024002500BF3120CC
:1091E000FFF7DBFF05460098401C00900098B0F5A3
:1091F000A06F01D0002DF2D03120FFF7CEFF08B1D3
:10920000012400E00024204638BD01460020A14A88
:10921000106820F0F80040EAC10010607047A049D3
:1092200008607047024600209A4B586820F47C1072
:1092300042EA01031843974B586070479849086603
:10924000704701460020934A506820F0030008430D
:10925000506070478F48406800F00C00704701462E
:1092600000208C4A506820F0F0000843506070479E
:1092700001460020874A506820F4E06008435060AF
:10928000704701460020834A506820F4605040EA4D
:10929000C1005060704729B17E4A527A02437D4B2B
:1092A0005A7204E07B4A527A82437A4B5A72704770
:1092B0007B49D8310860704701460020754A5068E4
:1092C00020F440400843506070470021714A20322A
:1092D0001170704A82F82010012802D004280AD1A7
:1092E00004E001216B4A2032117005E00521694A32
:1092F0002032117000E000BF00BF7047694908606C
:1093000070476449096A0143624A116270476549BE
:1093100044390860704730B5002100220024002342
:109320005C4D6D6805F00C0121B1042905D00829B8
:1093300023D105E05C4D056022E05B4D05601FE038
:10934000544D6D6805F47012524D6D6805F480340B
:10935000022505EB92421CB9544D554305600BE0C4
:109360004C4D6D6805F400351DB1504D55430560F9
:1093700002E04D4D5543056002E04B4D056000BFD6
:1093800000BF444D6D6805F0F0010909484D6B5C64
:109390000568DD4045603F4D6D6805F4E061090AF0
:1093A000434D6B5C4568DD4085603A4D6D6805F462
:1093B0006051C90A3E4D6B5C4568DD40C560354D66
:1093C0006D6805F44041890B3A4D6B5CC568B5FB8F
:1093D000F3F5056130BD29B12E4A526902432D4B88
:1093E0005A6104E02B4A526982432A4B5A61704702
:1093F00029B1284A92690243264B9A6104E0254A22
:1094000092698243234B9A61704729B1214AD269FC
:109410000243204BDA6104E01E4AD26982431D4BAD
:10942000DA61704729B11B4AD2680243194BDA60EE
:1094300004E0184AD2688243164BDA60704729B1BB
:10944000144A12690243134B1A6104E0114A12696B
:109450008243104B1A6170471249403908607047C7
:109460000F49C86470470B49C87170470948406A82
:1094700040F0807007494862704701460020054A65
:1094800092680A400AB1012000E0002070470149BB
:1094900088727047001002400000FFF8FFFFF6FEE0
:1094A000000042428004424200127A0000093D005E
:1094B000890000209900002010B50446FB48844232
:1094C00009D101218803FFF7ADFF00214FF480404F
:1094D000FFF7A8FF32E0F648844209D10121480491
:1094E000FFF7ADFF00214FF40030FFF7A8FF25E0A4
:1094F000F048844209D101218804FFF7A0FF002130
:109500004FF48020FFF79BFF18E0EB48844209D11D
:109510000121C804FFF793FF00214FF40020FFF75B
:109520008EFF0BE0E548844208D101210805FFF7D2
:1095300086FF00214FF48010FFF781FF10BD2DE959
:10954000F04786B005460E460024A24600BFA1465D
:109550000027B08900B100BF2F462C8A4CF6FF705F
:109560000440F08804432C82AC894EF6F31004408A
:10957000B08831890843718908430443AC81AC8ABF
:109580004FF6FF400440B0890443AC8201A8FFF7C6
:10959000C2FEC648874202D1DDF810A001E0DDF826
:1095A0000CA0A88900F4004040B10AEBCA0000EB0F
:1095B0000A1031684900B0FBF1F807E00AEBCA0075
:1095C00000EB0A1031688900B0FBF1F86420B8FBA9
:1095D000F0F004012009642101FB1089A88900F43E
:1095E000004040B1322000EBC900B0FBF1F000F0C8
:1095F0000700044308E0322000EB09106421B0FBAF
:10960000F1F000F00F0004432C8106B0BDE8F087B4
:109610004FF41651016000218180C18001810C212D
:10962000418100218181704710B502460020108AD7
:109630004FF2FF0318400B884C8823438C88234348
:10964000CC8823431843108210BD00210180418043
:109650008180C180704721B1828942F400528281A9
:1096600004E082894DF6FF731A4082817047F0B59D
:109670000346002400260025002040F66A17B94260
:1096800000D100BF1846C1F3421401F01F060127A4
:1096900007FA06F5012C01D10C3004E0022C01D1AF
:1096A000103000E014301AB107682F43076002E061
:1096B0000768AF430760F0BD1AB1838A0B4383820A
:1096C00002E0838A8B4383827047028A4FF6F073ED
:1096D0001A400282028A0A430282704782894FF24C
:1096E000FF731A40828182890A438281704721B1C7
:1096F000828942F00202828104E082894FF6FD7382
:109700001A4082817047028A4FF6DF731A40028244
:10971000028A0A430282704721B1028A42F48042DF
:10972000028204E0028A4BF6FF731A4002827047FD
:10973000C1F308028280704701468888C0F30800A0
:109740007047818941F0010181817047028BD2B25B
:109750000283028B42EA012202837047028B02F4E9
:109760007F420283028B0A430283704721B1828ABF
:1097700042F02002828204E0828A4FF6DF731A40B0
:109780008282704721B1828A42F01002828204E014
:10979000828A4FF6EF731A408282704721B1828A23
:1097A00042F00802828204E0828A4FF6F7731A4080
:1097B0008282704721B1828942F40042828103E0B3
:1097C0008289C2F30E028281704721B1828A42F4FB
:1097D0000062828204E0828A4FF2FF731A40828222
:1097E0007047828A4FF6FB731A408282828A0A434C
:1097F0008282704721B1828A42F00202828204E0B2
:10980000828A4FF6FD731A4082827047024600201A
:10981000B1F5007F00D100BF13880B400BB10120D0
:1098200000E00020704701F40072B2F5007F00D123
:1098300000BFCA430280704770B50246002400236F
:109840000025002040F66A16B14200D100BFC1F3E6
:10985000421501F01F03012606FA03F3012D02D180
:109860009689334006E0022D02D1168A334001E08A
:10987000968A33400C12012606FA04F41688344006
:1098800013B10CB1012000E0002070BD10B5002222
:10989000002340F66A14A14200D100BF0A1201243D
:1098A0009440A3B2DC43048010BD000000380140A6
:1098B0000044004000480040004C00400050004080
:1098C00010B50446FE48844208D10121C014FFF7B8
:1098D000A9FD0021E014FFF7A5FDC4E0B4F1804F1D
:1098E00008D101210846FFF7AAFD00210120FFF75A
:1098F000A6FDB8E0F348844208D101210220FFF719
:109900009EFD00210220FFF79AFDACE0EE48844264
:1099100008D101210420FFF792FD00210420FFF768
:109920008EFDA0E0E948844208D101210820FFF71C
:1099300086FD00210820FFF782FD94E0E448844280
:1099400008D101211020FFF77AFD00211020FFF738
:1099500076FD88E0DF48844208D101212020FFF70E
:109960006EFD00212020FFF76AFD7CE0DA4884428A
:1099700008D101214014FFF755FD00216014FFF7C5
:1099800051FD70E0D548844209D10121C804FFF798
:1099900049FD00214FF40020FFF744FD63E0D0486B
:1099A000844209D101210805FFF73CFD00214FF455
:1099B0008010FFF737FD56E0CA48844209D10121E3
:1099C0004805FFF72FFD00214FF40010FFF72AFD97
:1099D00049E0C548844208D101214020FFF72FFD0E
:1099E00000214020FFF72BFD3DE0C048844208D114
:1099F00001218020FFF723FD00218020FFF71FFDBC
:109A000031E0BB48844208D101218015FFF717FDE2
:109A10000021A015FFF713FD25E0B648844209D1C7
:109A200001210804FFF7FEFC00214FF48030FFF70E
:109A3000F9FC18E0B048844209D101214804FFF73D
:109A4000F1FC00214FF40030FFF7ECFC0BE0AB48D9
:109A5000844208D101218804FFF7E4FC00214FF47F
:109A60008020FFF7DFFC10BD00220288944B984253
:109A70000ED0994B98420BD0B0F1804F08D0914B4B
:109A8000984205D0904B984202D0904B984204D116
:109A90004FF68F731A404B881A438D4B984207D06C
:109AA0008C4B984204D04FF6FF431A40CB881A43A0
:109AB00002808B8883850B880385814B98420BD06D
:109AC000854B984208D08B4B984205D08A4B9842E0
:109AD00002D08A4B984201D10B7A038601238382FC
:109AE000704770B5002400220023058C4FF6FE76E7
:109AF00035400584028C8388048B4FF68F752C408B
:109B0000B51E2C400D882C43751E2A400D892A4312
:109B10004D882A436A4DA8420BD06F4DA84208D009
:109B2000744DA84205D0744DA84202D0734DA8428E
:109B300013D14FF6F7752A404D892A434FF6FB752E
:109B40002A408D882A434FF6FF652B404FF6FF557C
:109B50002B408D892B43CD892B4383800483CD8873
:109B60008586028470BD70B5002400220023058C18
:109B70004FF6EF7635400584028C8388048B48F6D7
:109B8000FF752C404FF6FF452C400D884FF6FF76B1
:109B900006EA05252C434FF6DF752A400D8906EAB3
:109BA00005152A434D8806EA05152A43444DA84267
:109BB00002D0494DA8421DD14FF67F752A404D89EC
:109BC0004FF6FF7606EA05152A434FF6BF752A4081
:109BD0008D8806EA05152A434FF6FF352B404FF2D4
:109BE000FF752B408D8906EA85052B43CD8906EA52
:109BF00085052B4383800483CD880587028470BD4F
:109C000070B5002400220023058C4FF6FF66354016
:109C10000584028C8388848B4FF68F752C404FF619
:109C2000FC752C400D882C434FF6FF552A400D89BA
:109C30004FF6FF7606EA05252A434D8806EA0525F4
:109C40002A431F4DA84202D0234DA8421DD14FF2F6
:109C5000FF752A404D894FF6FF7606EA05252A430F
:109C60004FF6FF352A408D8806EA05252A434EF631
:109C7000FF752B404DF6FF752B408D8906EA0515C3
:109C80002B43CD8906EA05152B4383808483CD8839
:109C90008587028470BD70B5002200230024058CE6
:109CA0004EF6FF7635400584038C8488828B48F617
:109CB000FF752A404FF6FF452A400D8820E000003E
:109CC000002C01400004004000080040000C00404F
:109CD000001000400014004000340140004C0140DE
:109CE000005001400054014000180040001C00409A
:109CF0000020004000400140004401400048014075
:109D00004FF6FF7606EA05252A434DF6FF752B40F0
:109D10000D8906EA05352B434D8806EA05352B43A8
:109D2000FA4DA84202D0FA4DA84208D14BF6FF7571
:109D30002C408D894FF6FF7606EA85152C438480EA
:109D40008283CD88A0F84050038470BD828B4FF28F
:109D5000FF331A408283828B4FF6FF7303EA01239D
:109D60001A4382837047F0B50C4615460022002145
:109D70000026078C4EF6FF7C07EA0C070784828BCF
:109D8000018C4FF6FF7707EA043640F6FF473A406A
:109D90004FF6FF7707EA05273A434FF6FF7707EAC2
:109DA00003373A43D94FB8420ED0D94FB8420BD0FF
:109DB000B0F1804F08D0D74FB84205D0D64FB84247
:109DC00002D0D64FB84206D14DF6FF77394046F45F
:109DD0008057394305E047F6FF57394044F4805730
:109DE000394382830184F0BD828B4FF6F3731A40AE
:109DF0008283828B0A4382837047F0B50C461546F6
:109E0000002200210026078C4FF6FF6C07EA0C07A2
:109E10000784828B018C4FF6FF7707EA04264FF602
:109E20000C773A404FF6FF7707EA03172F433A4380
:109E3000B64FB8420ED0B64FB8420BD0B0F1804FFB
:109E400008D0B44FB84205D0B34FB84202D0B34F98
:109E5000B84206D14FF6FF57394046F48077394370
:109E600005E04FF2FF57394044F48077394382834D
:109E70000184F0BD028B4FF2FF331A400283028B44
:109E80004FF6FF7303EA01231A4302837047F0B5CC
:109E90000C461546002200210026078C4FF6EF7C69
:109EA00007EA0C070784028B018C4FF6FF7707EA5D
:109EB000041640F6FF473A404FF6FF7707EA0337AC
:109EC0003A434FF6FF7707EA05273A438F4FB842E8
:109ED0000ED08F4FB8420BD0B0F1804F08D08D4FCD
:109EE000B84205D08C4FB84202D08C4FB84206D150
:109EF0004FF6DF77394046F01007394305E04FF65B
:109F00005F77394044F01007394302830184F0BD84
:109F1000028B4FF6F3731A400283028B0A430283CB
:109F20007047F0B50C46154600220021068C4FF60E
:109F3000FE773E400684028B018C4FF60C76324051
:109F40007E1C06EA03162E433243704EB0420ED0FA
:109F50006F4EB0420BD0B0F1804F08D06D4EB04282
:109F600005D06D4EB04202D06C4EB04206D14FF6D5
:109F7000FD76314044F00106314305E04FF6F576B9
:109F8000314044F00106314302830184F0BD70B5D5
:109F900005460C465D4885420ED05D4885420BD093
:109FA000B5F1804F08D05B48854205D05A488542BC
:109FB00002D05A48854200D100E000BF208850B945
:109FC0002389A28861882846FFF7ABFFE1882846ED
:109FD000FFF79EFF25E0208804280AD12389A28864
:109FE00061882846FFF753FFE1882846FFF742FFC4
:109FF00017E0208808280AD12389A288618828468A
:10A00000FFF7FBFEE1882846FFF7EEFE09E0238913
:10A01000A28861882846FFF7A6FEE1882846FFF758
:10A0200095FE70BD2DE9F04105460C46002601273E
:10A03000608808B9022600E00026A088012801D126
:10A04000022700E001272088A0B92389A28861881F
:10A050002846FFF766FFE1882846FFF759FF238966
:10A060003A4631462846FFF712FFE1882846FFF7B7
:10A0700001FF13E02389A28861882846FFF707FFC4
:10A08000E1882846FFF7F6FE23893A4631462846FE
:10A09000FFF747FFE1882846FFF73AFFBDE8F08168
:10A0A0000A884B881A438B881A43CB881A430B893A
:10A0B0001A434B891A438B891A43A0F844207047EE
:10A0C0004FF6FF71818000210180C18041800172C3
:10A0D00070470021018041808180C18001814181E0
:10A0E0008181C181704700210180418001218180EF
:10A0F0000021C18001817047002101804180818061
:10A10000C18001814181818170470000002C0140A4
:10A11000003401400004004000080040000C0040F2
:10A1200021B1028842F00102028004E002884FF669
:10A13000FE731A400280704731B1B0F8442042F4F7
:10A140000042A0F8442005E0B0F84420C2F30E021B
:10A15000A0F8442070471AB183890B43838102E041
:10A1600083898B43838170478182704741EA020370
:10A17000A0F8483070471AB183890B43838102E00D
:10A1800083898B438381704701894FF6F8721140B0
:10A19000018170470A46002101894FF68F731940EB
:10A1A00011430181704730B504460D4629462046CB
:10A1B000FFF7F0FF208940F00700208130BD2DE936
:10A1C000F04104460D4616461F46602D06D13B461B
:10A1D000012231462046FFF75AFE05E03B460122A8
:10A1E00031462046FFF79DFE29462046FFF7D2FF65
:10A1F000208940F007002081BDE8F08130B50C4691
:10A2000000210189C9B24FF6FF7505EA0325154300
:10A2100025432943018130BD2DE9F04105460E4615
:10A2200017469846002443463A4631462846FFF7EB
:10A23000E5FF2C894FF6F870044044F007044FF610
:10A240008F70044044F070042C81BDE8F081F0B5BB
:10A2500004460D4616461F463B46324629462046D2
:10A26000FFF7CCFF208940F480402081F0BD0185BC
:10A27000828270470A46002101884FF68F73194089
:10A28000114301807047F0B50C4615461E4600216B
:10A29000002200230189028B038C4FF6F8773940A6
:10A2A00021434FF6FC473A4040F201173A434FF63C
:10A2B000DD773B404FF6FF7707EA06172F433B4316
:10A2C000018102830384F0BD0A460021018B4FF611
:10A2D0008F7319401143018370470A460021018B97
:10A2E00048F6FF7319404FF6FF7303EA0223194340
:10A2F000018370470A460021818B4FF68F73194006
:10A300001143818370470A460021818B48F6FF7311
:10A3100019404FF6FF7303EA022319438183704704
:10A3200021B1028842F08002028004E002884FF6E8
:10A330007F731A400280704721B1828842F0040284
:10A34000828004E082884FF6FB731A408280704757
:10A3500021B1828842F00802828004E082884FF6B0
:10A36000F7731A408280704721B1828842F001025F
:10A37000828004E082884FF6FE731A408280704724
:10A380000A460021018B4FF6F773194011430183F0
:10A3900070470A460021018B4FF2FF7319404FF6B8
:10A3A000FF7303EA02231943018370470A46002121
:10A3B000818B4FF6F77319401143818370470A462A
:10A3C0000021818B4FF2FF7319404FF6FF7303EAB0
:10A3D00002231943818370470A460021018B4FF6FF
:10A3E000FB7319401143018370470A460021018B1A
:10A3F0004FF6FF3319404FF6FF7303EA0223194368
:10A40000018370470A460021818B4FF6FB73194088
:10A410001143818370470A460021818B4FF6FF3339
:10A4200019404FF6FF7303EA0223194381837047F3
:10A430000A460021018B4FF67F73194011430183B7
:10A4400070470A460021018BC1F30E014FF6FF73DE
:10A4500003EA02231943018370470A460021818BD6
:10A460004FF67F7319401143818370470A460021DC
:10A47000818BC1F30E014FF6FF7303EA02231943E8
:10A48000818370470A460021018C4FF6FD73194005
:10A490001143018470470A460021018C4FF6F7737F
:10A4A00019401143018470470A460021018C4FF680
:10A4B000DF7319404FF6FF7303EA02131943018457
:10A4C00070470A460021018C4FF67F7319404FF602
:10A4D000FF7303EA02131943018470470A460021FF
:10A4E000018C4FF6FF5319404FF6FF7303EA022326
:10A4F0001943018470470A460021018C4FF2FF7313
:10A5000019404FF6FF7303EA022319430184704791
:10A510000A460021018C4DF6FF7319404FF6FF7378
:10A5200003EA023319430184704730B50023012444
:10A530008C40A3B2048C9C430484048C02FA01F581
:10A54000ADB22C43048430BD30B5002304248C40CC
:10A55000A3B2048C9C430484048C02FA01F5ADB2CE
:10A560002C43048430BD70B50346002000241846F7
:10A57000183001258D40ACB21D8CA5431D8409B156
:10A58000082909D100EB6100056825F07005056018
:10A590000568154305600EE00D1FC5F34E05284400
:10A5A000056825F4E045056005684FF6FF7606EA84
:10A5B00002263543056070BD21B1028842F00202D7
:10A5C000028004E002884FF6FD731A400280704753
:10A5D00021B1028842F00402028004E002884FF6B2
:10A5E000FB731A400280704721B1828842F08002DA
:10A5F000828004E082884FF67F731A408280704721
:10A6000002884FF6F7731A40028002880A430280DC
:10A61000704782884FF68F731A40828082880A437F
:10A620008280704702894FF6F8731A4002810289CE
:10A630000A430281704702894FF67F731A400281F4
:10A6400002890A430281704781847047818570477F
:10A65000818670470187704781877047A0F8401056
:10A66000704702884FF6FF431A40028002880A436F
:10A67000028070470146888E70470146088F7047F8
:10A680000146888F70470146B1F840007047014687
:10A69000888C70470146088D704702460020138A57
:10A6A0000B400BB1012000E000207047CA4302823A
:10A6B000704730B50246002000230024158A05EAC1
:10A6C0000103958905EA010413B10CB1012000E0F2
:10A6D000002030BDCA430282704700000020444978
:10A6E0000860091D0860091D0860091D08604148CF
:10A6F0003F4914310860704700213D498279002AA2
:10A700003AD00A46126803689A430B461A600A1D3B
:10A71000126803689A430B1D1A60027911440A6893
:10A7200003681A430A60324A0832126803689A437F
:10A730002F4B08331A601A1D126803689A432C4B7A
:10A740000C331A604279102A0ED11A1F126803685E
:10A750001A43274B08331A601A1D126803681A43FC
:10A76000234B0C331A600DE02149427911440A68E9
:10A7700003681A430A6005E0027911440A68036815
:10A780009A430A6070470021016001710C214171F8
:10A790000021817170471649103109680143144A3C
:10A7A00010321160704701460020114A14321268BD
:10A7B0000A400AB1012000E0002070470C49143122
:10A7C00008607047014600200022094B1B6803EA1D
:10A7D0000102074B14331B680B4013B10AB101206F
:10A7E00000E0002070470249143108607047000003
:10A7F00000040140FFFF0F0001460020FE4A1068E0
:10A8000000F03800084310607047FB49096821F0E8
:10A810000801F94A11601146096801431160704747
:10A82000F549096821F01001F34A116011460968E1
:10A83000014311607047F148EF494860F0484860B3
:10A840007047EE48EC494860ED4848607047EA4878
:10A85000006940F08000E84908617047E6480069F7
:10A8600040F08000E449086170470420E249C9686B
:10A8700001F0010109B101200EE0DF49C96801F0D2
:10A88000040109B1022007E0DB49C96801F01001A9
:10A8900009B1032000E00420704700B502460423FC
:10A8A000FFF7E3FF034603E0FFF7DFFF0346521E17
:10A8B000012B01D1002AF7D102B90523184600BDAA
:10A8C00030B5044604254FF43020FFF7E6FF054677
:10A8D000042D17D1C848006940F00200C64908613C
:10A8E00008464461006940F0400008614FF43020A0
:10A8F000FFF7D3FF0546C048006941F6FD710840E7
:10A90000BD490861284630BD10B504244FF43020FD
:10A91000FFF7C3FF0446042C16D1B748006940F086
:10A920000400B54908610846006940F0400008612C
:10A930004FF43020FFF7B1FF0446AF48006941F6FD
:10A94000FB710840AC490861204610BD00B50246C5
:10A950000423FFF78AFF034603E0FFF786FF034661
:10A96000521E012B01D1002AF7D102B90523184646
:10A9700000BD10B504244FF43020FFF7E7FF044674
:10A98000042C16D19C48006940F004009A490861E3
:10A990000846006940F0400008614FF43020FFF79E
:10A9A000D5FF04469448006941F6FB71084092497E
:10A9B0000861204610BD00208F49C96901F00201DD
:10A9C00009B1012000E00020704730B5A52504241E
:10A9D000FFF7F1FF00B100254FF43020FFF75DFFD6
:10A9E0000446042C3AD185488349886084488860AD
:10A9F0000846006940F0200008610846006940F000
:10AA0000400008614FF43020FFF747FF0446042C54
:10AA10001BD17948006941F6DF7108407649086129
:10AA20000846006940F01000086176480580E002A1
:10AA3000FFF733FF0446052C10D06F48006941F63C
:10AA4000EF7108406C49086108E0052C06D06A489F
:10AA5000006941F6EF71084067490861204630BD42
:10AA600078B506460C46042500200090E802FFF762
:10AA700014FF0546042D24D15F48006940F0010011
:10AA80005D4908613480E802FFF707FF0546042DA1
:10AA900010D1B01C0090200C00990880E802FFF74C
:10AAA000FCFE05465448006941F6FE7108405249D3
:10AAB000086106E05048006941F6FE7108404E49C1
:10AAC0000861284678BD70B504460D460426F0029C
:10AAD000FFF7E3FE0646042E11D14748006940F017
:10AAE0000100454908612580F002FFF7D6FE0646C1
:10AAF0004148006941F6FE7108403F49086130460F
:10AB000070BD70B505460E460424E002FFF7C5FE91
:10AB10000446042C17D13948374988603848886082
:10AB20000846006940F0100008612E80E002FFF73F
:10AB3000B4FE0446052C06D02F48006941F6EF719B
:10AB400008402D490861204670BD2DE9F0430446B8
:10AB50004FF6FF763746B046B1460425E443E6B2E9
:10AB6000C4F30727C4F307484FEA1469E802FFF764
:10AB700094FE0546042D49D120481F49886020488D
:10AB800088600846006940F010000861FF2E06D07A
:10AB90001C4808300680E802FFF77FFE0546042DBA
:10ABA00008D1FF2F06D017480A300780E802FFF7C8
:10ABB00074FE0546042D0AD1B8F1FF0F07D01148E5
:10ABC0000C30A0F80080E802FFF767FE0546042D70
:10ABD0000AD1B9F1FF0F07D00A480E30A0F8009053
:10ABE000E802FFF75AFE0546052D0FD0024800691E
:10ABF00041F6EF71084007E000200240230167455D
:10AC0000AB89EFCD00F8FF1F664908612846BDE813
:10AC1000F08330B5054604244FF43020FFF73DFEA5
:10AC20000446042C41D160485E4988605F488860D2
:10AC30000846006940F0200008610846006940F0BD
:10AC4000400008614FF43020FFF727FE0446042C33
:10AC500022D15448006941F6DF710840514908612A
:10AC60000846006940F0100008611DB100205049FD
:10AC7000088002E0A5204E4908804FF43020FFF7FD
:10AC80000CFE0446052C10D04648006941F6EF71D1
:10AC900008404449086108E0052C06D04148006995
:10ACA00041F6DF7108403F490861204630BDF0B5EC
:10ACB00005460E46174604243B483A4988603B48FF
:10ACC0008860E002FFF7E9FD0446042C19D13548FD
:10ACD000006940F010003349086147F0F800304344
:10ACE00028433349891C0880E002FFF7D6FD04465B
:10ACF000052C06D02B48006941F6EF710840294920
:10AD000008612046F0BD2748C06980087047254883
:10AD1000006A704700202349096801F0200109B149
:10AD2000012000E00020704729B11E4A1269024349
:10AD30001C4B1A6104E01B4A12698243194B1A61C9
:10AD4000704701460020012908D1164AD26902F055
:10AD500001020AB1012008E0002006E0114AD26891
:10AD60000A400AB1012000E0002070470D49C86088
:10AD7000704704200B49C96801F0010109B10120A5
:10AD80000EE00849C96801F0040109B1022007E09A
:10AD90000449C96801F0100109B1032000E0042052
:10ADA000704700000020024023016745AB89EFCDCA
:10ADB00000F8FF1F0E49086070470D494860704752
:10ADC0000B49886070474AF6AA2009490860704715
:10ADD0004CF6CC4006490860704701460020044A02
:10ADE000D2680A400AB1012000E00020704700004C
:10ADF0000030004010B50446BE48844208D101210D
:10AE00008014FEF70FFB0021A014FEF70BFB16E0E9
:10AE1000B948844208D101210014FEF710FB00213B
:10AE20002014FEF70CFB0AE0B448844207D101214C
:10AE3000C013FEF704FB0021E013FEF700FB10BD7A
:10AE400010B50022028802F441520B884C8823433B
:10AE50008C882343CC8823430C8923434C89234388
:10AE60008C892343CC8923431A430280838B4FF27E
:10AE7000FF74234083830B8A038210BD2DE9F04FBA
:10AE800085B005460C464FF0000902274FF0000838
:10AE90004FF0010B0026B246A88B4FF2400108404C
:10AEA000A88302202884B5F81C90A068022801D14C
:10AEB00000BF38E0A08810B94FF0010B01E04FF05F
:10AEC000020B8D48854200D100E000BF6846FEF7C6
:10AED00022FADDF800A0E088B0F5007F0AD14FEA41
:10AEE0001A2000EB80004000A168B0FBF1F0401D8B
:10AEF00086B20BE04FEA4B10BAFBF0F000EB80009B
:10AF00004000A168B0FBF1F0401D86B20A20B6FBFC
:10AF1000F0F606F00108A6EB0800C0F34F074FF665
:10AF2000FF7000EA0828022F01DBFF2F02DD022755
:10AF30004FF00008E08840EA080038432884A088E1
:10AF4000A1890843618808432188084340F40060D0
:10AF500040EA0909A5F81C9005B0BDE8F08F002172
:10AF6000018041808180C180018141818181C181D5
:10AF70000721018270470021018041808180C180CA
:10AF80000221816000218181704721B1028842F055
:10AF90004002028004E002884FF6BF731A4002802C
:10AFA000704721B1828B42F48062828304E0828BFD
:10AFB0004FF6FF331A408283704730B500240023D8
:10AFC0000C110125A540ABB21AB185881D438580BF
:10AFD00002E085889D43858030BD1AB183880B438C
:10AFE000838002E083888B43838070478181704730
:10AFF0000146888970474FF6FF62914204D002886B
:10B0000042F48072028004E002884FF6FF631A4027
:10B010000280704721B1828842F00402828004E0FD
:10B0200082884FF6FB731A408280704702884FF285
:10B03000FF731A40028002880A4302807047018829
:10B0400041F480510180704721B1028842F40052DE
:10B05000028004E002884DF6FF731A4002807047B8
:10B0600002460020012901D0108B00E0908A704731
:10B070000146088A7047B1F5804F04D1028842F436
:10B080008042028004E002884BF6FF731A4002807F
:10B0900070470246002013890B400BB1012000E0ED
:10B0A00000207047CA4302817047F0B50246002075
:10B0B00000240023002501F00F070126BE40B4B292
:10B0C0000B1101269E40B3B2968806EA0305168945
:10B0D000264016B10DB1012000E00020F0BD10B5F2
:10B0E000002201F00F040123A3409AB2D34303814D
:10B0F00010BD00000030014000380040003C00401E
:10B1000008B501211020FEF773F94FF48050ADF817
:10B11000000003208DF8020010208DF8030069461E
:10B120003E48FDF7A9FE01210820FEF761F9202025
:10B13000ADF8000003208DF8020010208DF8030008
:10B1400069463748FDF798FE01212020FEF750F9A7
:10B150000420ADF8000003208DF8020010208DF8C7
:10B16000030069462F48FDF787FE01210820FEF7FE
:10B170003FF91020ADF8000004208DF80300694667
:10B180002748FDF779FE01210820FEF731F9082054
:10B19000ADF8000003208DF8020010208DF80300A8
:10B1A00069461F48FDF768FE08BD10B5FFF7A8FF08
:10B1B00008211B48FDF70DFF4FF480511748FDF79C
:10B1C00008FF0A20FDF76DFB00F0DBF8412000F0DE
:10B1D00016F910BD38B56946522000F0D3F905467E
:10B1E000262804D06946522000F0CCF90546262DC9
:10B1F00013D1684600F0F1F926280ED100200A4943
:10B200000870002404E01DF8040008490855641C77
:10B21000042CF8DB03F0FCF900BF38BD001001403E
:10B22000000C014000140140B8000020F000002094
:10B2300070B50446002520E004F0800020B1042110
:10B24000F748FDF7C6FE03E00421F548FDF7C3FE0D
:10B250000520FDF702FB2021F248FDF7BCFE05208A
:10B26000FDF7FBFA2021EF48FDF7B3FE0520FDF7BF
:10B27000F4FA6006040E681CC5B2082DDCDB70BD54
:10B2800070B500251CE06006040E2021E548FDF79E
:10B29000A2FE0520FDF7E1FA1021E248FDF77FFE4E
:10B2A000012801D144F001040520FDF7D6FA202140
:10B2B000DC48FDF78EFE0520FDF7CFFA681CC5B20D
:10B2C000082DE0DB204670BD70B504467E2000EA04
:10B2D000440040F080054FF48051D348FDF77BFED9
:10B2E0002846FFF7A5FFFFF7CBFF06464FF4805136
:10B2F000CD48FDF76EFE304670BD70B504460D4674
:10B300007E2000EA44064FF48051C748FDF763FEF3
:10B310003046FFF78DFF2846FFF78AFF4FF4805134
:10B32000C148FDF756FE70BD70B505460C4628466F
:10B33000FFF7CAFF064646EA04012846FFF7DDFF8D
:10B3400070BD70B505460C462846FFF7BDFF0646A2
:10B3500026EA04012846FFF7D0FF70BD10B514207F
:10B36000FFF7B2FF044604F0030018B903211420CC
:10B37000FFF7DAFF10BD10B503211420FFF7E1FF3E
:10B3800010BD10B50821A748FDF723FE0120FDF7E9
:10B3900064FA0821A348FDF71EFE0120FDF75DFABF
:10B3A0000821A048FDF715FE0120FDF756FA0F21F0
:10B3B0000120FFF7A2FF00BF0120FFF785FF00F08B
:10B3C00010000028F8D10120FDF747FA3D21112097
:10B3D000FFF793FF1E212D20FFF78FFF00212C2068
:10B3E000FFF78BFF8D212A20FFF787FF3E212B20BF
:10B3F000FFF783FF40211520FFF77FFF10BD10B539
:10B400000446412C24D108210846FFF79AFF3D212C
:10B410001120FFF772FF86211720FFF76EFF7F21B3
:10B420002620FFF76AFF1E212D20FFF766FF00216F
:10B430002C20FFF762FF8D212A20FFF75EFF3E21BF
:10B440002B20FFF75AFF0220FDF707FAFFF786FFD0
:10B4500010BD2DE9FE4F0646884691469A46DDF816
:10B4600030B0BB2002900020019000900C2E06D03E
:10B470000E2E09D1122001901020009005E07720B7
:10B4800001903020009000E000BF00BF019840F024
:10B4900080010220FFF731FF80210420FFF751FFD8
:10B4A00000210120FFF729FF80210A20FFF73CFF40
:10B4B000002505E018F805100920FFF71EFF6D1C98
:10B4C0004D45F7D331460120FFF717FF0C2E03D16E
:10B4D00080210D20FFF728FF4FF47A7500BF04206C
:10B4E000FFF7F2FE04466D1E35B104F0010018B9F5
:10B4F000009820400028F2D080210D20FFF721FF86
:10B5000095B30620FFF7E0FE00F01B0068BB262085
:10B5100002900198204000F0010008B1CC20029078
:10B520000C2E24D10A20FFF7CFFE04460C20FFF793
:10B53000CBFE00F007072FB1601E07EBC000CBF871
:10B54000000002E0E000CBF8000004B90124122C56
:10B5500000DD1224002505E00920FFF7B5FE0AF8FA
:10B5600005006D1CA542F7D301E0BB2002908021AD
:10B570000C20FFF7D9FE00210120FFF7BEFE029844
:10B58000BDE8FE8F70B588B005460C460821084618
:10B59000FFF7D7FE07210D20FFF7AFFE0321142090
:10B5A000FFF7C2FE8DF80C5002A803AB012203A9DD
:10B5B00000900C20FFF74DFF0646262E09D1029879
:10B5C000102806D19DF80C0020709DF80D006070C9
:10B5D00000E0BB26304608B070BDF0B587B0054628
:10B5E000002708210846FFF7ACFE00210D20FFF7D9
:10B5F00084FE80210E20FFF7A4FE93208DF8080022
:10B6000020208DF8090001A802AB022202A90090B7
:10B610000C20FFF71EFF0646262E16D100240DE053
:10B6200000140140000C01400010014002A8005D20
:10B63000285502A8005D4740601CC4B2042CF5DB0D
:10B6400002A8005DB84200D0BB2680210E20FFF783
:10B650006BFE304607B0F0BD2DE9F0410746884645
:10B66000154604210520FFF76CFE00210120FFF79D
:10B6700044FE80210A20FFF757FE002405E0395DD3
:10B680000920FFF73AFE601CC4B24445F7DB0321F2
:10B690000120FFF732FEFF2400BF0520FFF714FE54
:10B6A0000646601EC4B21CB106F004000028F4D0A7
:10B6B0002220FFF709FE28702120FFF705FE6870A1
:10B6C000BDE8F08170B588B0054693208DF80C0078
:10B6D00070208DF80D0000208DF8120000240BE082
:10B6E000295D03AAA01C11549DF81200295D484051
:10B6F0008DF81200601CC4B2042CF1DB0DF11302B2
:10B70000072103A8FFF7A8FF08210846FFF719FE45
:10B7100002A803AB092203A900900C20FFF799FEB1
:10B720000646262E03D10298182800D100E0BB2639
:10B73000304608B070BD2DE9F04387B006460F468D
:10B74000904699468DF808608DF80970002406E04F
:10B7500018F8041002AAA01C1154601CC4B2062CD4
:10B76000F6DB002407E019F8041002AA04F108002F
:10B770001154601CC4B2062CF5DB01A802AB0C22EC
:10B7800002A900900E20FFF764FE0546262D05D184
:10B790000820FFF799FD00F0080000B9BB252846F6
:10B7A00007B0BDE8F083F0B587B006460F46A0208D
:10B7B0008DF808008DF809600DF10A02022102A837
:10B7C000FFF74AFF01A802AB042202A900900C2057
:10B7D000FFF73FFE0546262D08D10198042805D124
:10B7E0009DF8080000F00F000A2800D0BB25262D88
:10B7F00022D1002404E0385D02A90855601CC4B2BF
:10B80000102CF8DB06AA102102A8FFF725FF01A8DB
:10B8100002AB122202A900900C20FFF71AFE054687
:10B82000262D08D10198042805D19DF8080000F0C4
:10B830000F000A2800D0BB25284607B0F0BDF0B5A0
:10B8400087B005460E4630208DF808008DF8095067
:10B850000DF10A02022102A8FFF7FEFE01A802ABC9
:10B86000042202A900900C20FFF7F3FD0746262FC3
:10B870000CD10198902809D1002404E002A8005DB1
:10B880003055601CC4B2102CF8DB00E0BB273846F2
:10B8900007B0F0BD00B587B050208DF8080000203B
:10B8A0008DF809000DF10A02022102A8FFF7D4FE6B
:10B8B00001A802AB042202A900900C20FFF7C9FDE9
:10B8C000262007B000BDF8B504460D4617461E46B3
:10B8D0000020009069465220FFF754FE6846FFF7AB
:10B8E0007CFE2046FFF7EEFE23462A46102160200C
:10B8F000FFF721FF27B131461020FFF7A0FF03E03B
:10B9000031461020FFF74FFFFFF7C4FFF8BD0000DE
:10B9100008B501214020FDF76BFD1C20ADF80000AB
:10B9200010208DF8030003208DF802006946F948C5
:10B93000FDF7A2FA0821F748FDF74BFB1421F54863
:10B94000FDF749FB08BD70B504460E460020F249DC
:10B9500008600A20FCF781FF0120F049C1F8880146
:10B9600004F0FE04EB48006820F47040E9490860E8
:10B970000846006840F440500860002519E004F0D3
:10B98000010020B10120E449091D086003E0002006
:10B99000E149091D08600120DF49083108600A20DB
:10B9A000FCF75BFF0020DD49C1F890016410681CC2
:10B9B000C5B2082DE3DB002519E006F0010020B137
:10B9C0000120D549091D086003E00020D249091D66
:10B9D00008600120D049083108600A20FCF73DFFCB
:10B9E0000020CE49C1F890017610681CC5B2082D20
:10B9F000E3DB0020C849086070BD70B50446002034
:10BA0000C54908600A20FCF728FF0120C349C1F896
:10BA1000880144F00104BF48006820F47040BD492B
:10BA200008600846006840F440500860002619E0AD
:10BA300004F0010020B10120B749091D086003E0AE
:10BA40000020B549091D08600120B349083108608C
:10BA50000A20FCF702FF0020B049C1F890016410F1
:10BA6000701CC6B2082EE3DBAA48006820F47040C0
:10BA7000A84908600846006840F4004008600026B5
:10BA800016E06D10A4487C38006810B145F08005C0
:10BA900001E005F07F0501209F49083108600A2078
:10BAA000FCF7DBFE00209D49C1F89001701CC6B276
:10BAB000082EE6DB002098490860284670BD2DE975
:10BAC000FC4103460C4696A641CECDE90006184639
:10BAD000DE1703EB1676361106EB860603F00F0C25
